{
  "address": "0xAA5BFa3011E4857ba6C25e841e01504c79268f54",
  "abi": [
    {
      "inputs": [
        {
          "internalType": "contract ENS",
          "name": "_ens",
          "type": "address"
        }
      ],
      "stateMutability": "nonpayable",
      "type": "constructor"
    },
    {
      "inputs": [
        {
          "internalType": "address[]",
          "name": "addresses",
          "type": "address[]"
        }
      ],
      "name": "getNames",
      "outputs": [
        {
          "internalType": "string[]",
          "name": "r",
          "type": "string[]"
        }
      ],
      "stateMutability": "view",
      "type": "function"
    }
  ],
  "transactionHash": "0xc47a3e19267863886d1934c31e5ae26134d87708924ee5ea7d2a8f91a2d81652",
  "args": [
    "0x32f1FBE59D771bdB7FB247FE97A635f50659202b"
  ],
  "numDeployments": 1,
  "solcInputHash": "67052368967ec6b801cc8552d0fc95ae",
  "bytecode": "0x60806040523480156200001157600080fd5b5060405162001459380380620014598339818101604052810190620000379190620001ea565b806000806101000a81548173ffffffffffffffffffffffffffffffffffffffff021916908373ffffffffffffffffffffffffffffffffffffffff16021790555060008054906101000a900473ffffffffffffffffffffffffffffffffffffffff1673ffffffffffffffffffffffffffffffffffffffff166302571be37f91d1777781884d03a6757a803996e38de2a42967fb37eeaca72729271025a9e260001b6040518263ffffffff1660e01b8152600401620000f5919062000227565b60206040518083038186803b1580156200010e57600080fd5b505afa15801562000123573d6000803e3d6000fd5b505050506040513d601f19601f82011682018060405250810190620001499190620001be565b600160006101000a81548173ffffffffffffffffffffffffffffffffffffffff021916908373ffffffffffffffffffffffffffffffffffffffff16021790555050620002ca565b600081519050620001a18162000296565b92915050565b600081519050620001b881620002b0565b92915050565b600060208284031215620001d157600080fd5b6000620001e18482850162000190565b91505092915050565b600060208284031215620001fd57600080fd5b60006200020d84828501620001a7565b91505092915050565b620002218162000258565b82525050565b60006020820190506200023e600083018462000216565b92915050565b6000620002518262000276565b9050919050565b6000819050919050565b60006200026f8262000244565b9050919050565b600073ffffffffffffffffffffffffffffffffffffffff82169050919050565b620002a18162000244565b8114620002ad57600080fd5b50565b620002bb8162000262565b8114620002c757600080fd5b50565b61117f80620002da6000396000f3fe608060405234801561001057600080fd5b506004361061002b5760003560e01c8063cbf8b66c14610030575b600080fd5b61004a60048036038101906100459190610a8f565b610060565b6040516100579190610c29565b60405180910390f35b60608282905067ffffffffffffffff8111156100a5577f4e487b7100000000000000000000000000000000000000000000000000000000600052604160045260246000fd5b6040519080825280602002602001820160405280156100d857816020015b60608152602001906001900390816100c35790505b50905060005b83839050811015610535576000610141858584818110610127577f4e487b7100000000000000000000000000000000000000000000000000000000600052603260045260246000fd5b905060200201602081019061013c9190610a14565b61053c565b905060008060009054906101000a900473ffffffffffffffffffffffffffffffffffffffff1673ffffffffffffffffffffffffffffffffffffffff16630178b8bf836040518263ffffffff1660e01b815260040161019f9190610c4b565b60206040518083038186803b1580156101b757600080fd5b505afa1580156101cb573d6000803e3d6000fd5b505050506040513d601f19601f820116820180604052508101906101ef9190610a3d565b9050600073ffffffffffffffffffffffffffffffffffffffff168173ffffffffffffffffffffffffffffffffffffffff161461051f57600081905060008173ffffffffffffffffffffffffffffffffffffffff1663691f3431856040518263ffffffff1660e01b81526004016102659190610c4b565b60006040518083038186803b15801561027d57600080fd5b505afa158015610291573d6000803e3d6000fd5b505050506040513d6000823e3d601f19601f820116820180604052508101906102ba9190610ad4565b90506000815114156102cf5750505050610522565b60006102da82610599565b905060008060009054906101000a900473ffffffffffffffffffffffffffffffffffffffff1673ffffffffffffffffffffffffffffffffffffffff16630178b8bf836040518263ffffffff1660e01b81526004016103389190610c4b565b60206040518083038186803b15801561035057600080fd5b505afa158015610364573d6000803e3d6000fd5b505050506040513d601f19601f820116820180604052508101906103889190610a3d565b9050600073ffffffffffffffffffffffffffffffffffffffff168173ffffffffffffffffffffffffffffffffffffffff161461051a57600081905060008173ffffffffffffffffffffffffffffffffffffffff16633b3b57de856040518263ffffffff1660e01b81526004016103fe9190610c4b565b60206040518083038186803b15801561041657600080fd5b505afa15801561042a573d6000803e3d6000fd5b505050506040513d601f19601f8201168201806040525081019061044e9190610a66565b90508b8b8a818110610489577f4e487b7100000000000000000000000000000000000000000000000000000000600052603260045260246000fd5b905060200201602081019061049e9190610a14565b73ffffffffffffffffffffffffffffffffffffffff168173ffffffffffffffffffffffffffffffffffffffff16141561051757848a8a8151811061050b577f4e487b7100000000000000000000000000000000000000000000000000000000600052603260045260246000fd5b60200260200101819052505b50505b505050505b50505b808061052d9061104c565b9150506100de565b5092915050565b60007f91d1777781884d03a6757a803996e38de2a42967fb37eeaca72729271025a9e260001b61056b83610672565b60405160200161057c929190610bfd565b604051602081830303815290604052805190602001209050919050565b60008060001b905060006105ac836106dc565b905060006105ee6040518060400160405280600181526020017f2e000000000000000000000000000000000000000000000000000000000000008152506106dc565b90506105f8610909565b61060d82828561070a9092919063ffffffff16565b505b610618816107b8565b61066a5783610626826107c8565b604051602001610637929190610bfd565b60405160208183030381529060405280519060200120935061066482828561070a9092919063ffffffff16565b5061060f565b505050919050565b60007f303132333435363738396162636465660000000000000000000000000000000060285b60008111156106ce5760018103905081600f85161a815360108404935060018103905081600f85161a8153601084049350610698565b506028600020915050919050565b6106e4610909565b600060208301905060405180604001604052808451815260200182815250915050919050565b610712610909565b600061073085600001518660200151866000015187602001516107d9565b90508083602001818152505084602001518161074c9190610f32565b856000015161075b9190610f32565b83600001818152505084602001518114156107805760008560000181815250506107ad565b836000015183600001516107949190610d11565b856000018181516107a59190610f32565b915081815250505b829150509392505050565b6000808260000151149050919050565b600081516020830151209050919050565b6000808584116108fc576020841161089857600060018560206107fc9190610f32565b60086108089190610ed8565b60026108149190610dba565b61081e9190610f32565b1960001b905060008185511690508588886108399190610d11565b6108439190610f32565b925060008284511690505b818114610881578784116108685787945050505050610901565b838061087390610ff1565b94505082845116905061084e565b868461088d9190610d11565b945050505050610901565b6000848420905084876108ab9190610f32565b866108b69190610d11565b91505b8582106108fa5760008583209050808214156108e55785836108db9190610d11565b9350505050610901565b6001836108f29190610f32565b9250506108b9565b505b849150505b949350505050565b604051806040016040528060008152602001600081525090565b600061093661093184610c8b565b610c66565b90508281526020810184848401111561094e57600080fd5b610959848285610fbe565b509392505050565b6000813590506109708161111b565b92915050565b6000815190506109858161111b565b92915050565b60008151905061099a81611132565b92915050565b60008083601f8401126109b257600080fd5b8235905067ffffffffffffffff8111156109cb57600080fd5b6020830191508360208202830111156109e357600080fd5b9250929050565b600082601f8301126109fb57600080fd5b8151610a0b848260208601610923565b91505092915050565b600060208284031215610a2657600080fd5b6000610a3484828501610961565b91505092915050565b600060208284031215610a4f57600080fd5b6000610a5d84828501610976565b91505092915050565b600060208284031215610a7857600080fd5b6000610a868482850161098b565b91505092915050565b60008060208385031215610aa257600080fd5b600083013567ffffffffffffffff811115610abc57600080fd5b610ac8858286016109a0565b92509250509250929050565b600060208284031215610ae657600080fd5b600082015167ffffffffffffffff811115610b0057600080fd5b610b0c848285016109ea565b91505092915050565b6000610b218383610bc4565b905092915050565b6000610b3482610ccc565b610b3e8185610cef565b935083602082028501610b5085610cbc565b8060005b85811015610b8c5784840389528151610b6d8582610b15565b9450610b7883610ce2565b925060208a01995050600181019050610b54565b50829750879550505050505092915050565b610ba781610f8a565b82525050565b610bbe610bb982610f8a565b611095565b82525050565b6000610bcf82610cd7565b610bd98185610d00565b9350610be9818560208601610fbe565b610bf2816110fd565b840191505092915050565b6000610c098285610bad565b602082019150610c198284610bad565b6020820191508190509392505050565b60006020820190508181036000830152610c438184610b29565b905092915050565b6000602082019050610c606000830184610b9e565b92915050565b6000610c70610c81565b9050610c7c828261101b565b919050565b6000604051905090565b600067ffffffffffffffff821115610ca657610ca56110ce565b5b610caf826110fd565b9050602081019050919050565b6000819050602082019050919050565b600081519050919050565b600081519050919050565b6000602082019050919050565b600082825260208201905092915050565b600082825260208201905092915050565b6000610d1c82610fb4565b9150610d2783610fb4565b9250827fffffffffffffffffffffffffffffffffffffffffffffffffffffffffffffffff03821115610d5c57610d5b61109f565b5b828201905092915050565b6000808291508390505b6001851115610db157808604811115610d8d57610d8c61109f565b5b6001851615610d9c5780820291505b8081029050610daa8561110e565b9450610d71565b94509492505050565b6000610dc582610fb4565b9150610dd083610fb4565b9250610dfd7fffffffffffffffffffffffffffffffffffffffffffffffffffffffffffffffff8484610e05565b905092915050565b600082610e155760019050610ed1565b81610e235760009050610ed1565b8160018114610e395760028114610e4357610e72565b6001915050610ed1565b60ff841115610e5557610e5461109f565b5b8360020a915084821115610e6c57610e6b61109f565b5b50610ed1565b5060208310610133831016604e8410600b8410161715610ea75782820a905083811115610ea257610ea161109f565b5b610ed1565b610eb48484846001610d67565b92509050818404811115610ecb57610eca61109f565b5b81810290505b9392505050565b6000610ee382610fb4565b9150610eee83610fb4565b9250817fffffffffffffffffffffffffffffffffffffffffffffffffffffffffffffffff0483118215151615610f2757610f2661109f565b5b828202905092915050565b6000610f3d82610fb4565b9150610f4883610fb4565b925082821015610f5b57610f5a61109f565b5b828203905092915050565b6000610f7182610f94565b9050919050565b6000610f8382610f94565b9050919050565b6000819050919050565b600073ffffffffffffffffffffffffffffffffffffffff82169050919050565b6000819050919050565b60005b83811015610fdc578082015181840152602081019050610fc1565b83811115610feb576000848401525b50505050565b6000610ffc82610fb4565b915060008214156110105761100f61109f565b5b600182039050919050565b611024826110fd565b810181811067ffffffffffffffff82111715611043576110426110ce565b5b80604052505050565b600061105782610fb4565b91507fffffffffffffffffffffffffffffffffffffffffffffffffffffffffffffffff82141561108a5761108961109f565b5b600182019050919050565b6000819050919050565b7f4e487b7100000000000000000000000000000000000000000000000000000000600052601160045260246000fd5b7f4e487b7100000000000000000000000000000000000000000000000000000000600052604160045260246000fd5b6000601f19601f8301169050919050565b60008160011c9050919050565b61112481610f66565b811461112f57600080fd5b50565b61113b81610f78565b811461114657600080fd5b5056fea2646970667358221220df59e6e92a37affe417a5cf5ff00396ca7f96005c3f5065b44841d922c4778d964736f6c63430008040033",
  "devdoc": {
    "kind": "dev",
    "methods": {},
    "version": 1
  },
  "userdoc": {
    "kind": "user",
    "methods": {
      "constructor": {
        "notice": "The `constructor` takes ENS registry address"
      },
      "getNames(address[])": {
        "notice": "Read only function to return ens name only if both forward and reverse resolution are set     *"
      }
    },
    "version": 1
  },
  "storageLayout": {
    "storage": [
      {
        "astId": 6118,
        "contract": "contracts/ReverseRecords.sol:ReverseRecords",
        "label": "ens",
        "offset": 0,
        "slot": "0",
        "type": "t_contract(ENS)2212"
      },
      {
        "astId": 6121,
        "contract": "contracts/ReverseRecords.sol:ReverseRecords",
        "label": "registrar",
        "offset": 0,
        "slot": "1",
        "type": "t_contract(ReverseRegistrar)3043"
      }
    ],
    "types": {
      "t_contract(ENS)2212": {
        "encoding": "inplace",
        "label": "contract ENS",
        "numberOfBytes": "20"
      },
      "t_contract(ReverseRegistrar)3043": {
        "encoding": "inplace",
        "label": "contract ReverseRegistrar",
        "numberOfBytes": "20"
      }
    }
  }
}