{
  "address": "0x0efB8EE0F6d6ba04F26101683F062d7Ca6F58A40",
  "abi": [
    {
      "inputs": [
        {
          "internalType": "contract ENS",
          "name": "_ens",
          "type": "address"
        }
      ],
      "stateMutability": "nonpayable",
      "type": "constructor"
    },
    {
      "inputs": [
        {
          "internalType": "string[]",
          "name": "names",
          "type": "string[]"
        },
        {
          "internalType": "uint256",
          "name": "coinType",
          "type": "uint256"
        }
      ],
      "name": "getAddrs",
      "outputs": [
        {
          "internalType": "bytes[]",
          "name": "r",
          "type": "bytes[]"
        }
      ],
      "stateMutability": "view",
      "type": "function"
    },
    {
      "inputs": [
        {
          "internalType": "address[]",
          "name": "addresses",
          "type": "address[]"
        }
      ],
      "name": "getNames",
      "outputs": [
        {
          "internalType": "string[]",
          "name": "r",
          "type": "string[]"
        }
      ],
      "stateMutability": "view",
      "type": "function"
    }
  ],
  "transactionHash": "0x79a3f3726bf4a5af299935473bea086aa67fa4a71d5376cbeb5e54758e4dcbe0",
  "args": [
    "0xCfb86556760d03942EBf1ba88a9870e67D77b627"
  ],
  "numDeployments": 2,
  "solcInputHash": "251cedf1ae14c3903a9418a499ca7845",
  "bytecode": "0x60806040523480156200001157600080fd5b5060405162001b1b38038062001b1b8339818101604052810190620000379190620001ea565b806000806101000a81548173ffffffffffffffffffffffffffffffffffffffff021916908373ffffffffffffffffffffffffffffffffffffffff16021790555060008054906101000a900473ffffffffffffffffffffffffffffffffffffffff1673ffffffffffffffffffffffffffffffffffffffff166302571be37f91d1777781884d03a6757a803996e38de2a42967fb37eeaca72729271025a9e260001b6040518263ffffffff1660e01b8152600401620000f5919062000227565b60206040518083038186803b1580156200010e57600080fd5b505afa15801562000123573d6000803e3d6000fd5b505050506040513d601f19601f82011682018060405250810190620001499190620001be565b600160006101000a81548173ffffffffffffffffffffffffffffffffffffffff021916908373ffffffffffffffffffffffffffffffffffffffff16021790555050620002ca565b600081519050620001a18162000296565b92915050565b600081519050620001b881620002b0565b92915050565b600060208284031215620001d157600080fd5b6000620001e18482850162000190565b91505092915050565b600060208284031215620001fd57600080fd5b60006200020d84828501620001a7565b91505092915050565b620002218162000258565b82525050565b60006020820190506200023e600083018462000216565b92915050565b6000620002518262000276565b9050919050565b6000819050919050565b60006200026f8262000244565b9050919050565b600073ffffffffffffffffffffffffffffffffffffffff82169050919050565b620002a18162000244565b8114620002ad57600080fd5b50565b620002bb8162000262565b8114620002c757600080fd5b50565b61184180620002da6000396000f3fe608060405234801561001057600080fd5b50600436106100365760003560e01c8063344b9a1b1461003b578063cbf8b66c1461006b575b600080fd5b61005560048036038101906100509190610eed565b61009b565b60405161006291906111ac565b60405180910390f35b61008560048036038101906100809190610ea8565b6103b2565b60405161009291906111ce565b60405180910390f35b60608383905067ffffffffffffffff8111156100e0577f4e487b7100000000000000000000000000000000000000000000000000000000600052604160045260246000fd5b60405190808252806020026020018201604052801561011357816020015b60608152602001906001900390816100fe5790505b50905060005b848490508110156103aa5760006101bc868684818110610162577f4e487b7100000000000000000000000000000000000000000000000000000000600052603260045260246000fd5b90506020028101906101749190611234565b8080601f016020809104026020016040519081016040528093929190818152602001838380828437600081840152601f19601f8201169050808301925050505050505061088e565b905060008060009054906101000a900473ffffffffffffffffffffffffffffffffffffffff1673ffffffffffffffffffffffffffffffffffffffff16630178b8bf836040518263ffffffff1660e01b815260040161021a91906111f0565b60206040518083038186803b15801561023257600080fd5b505afa158015610246573d6000803e3d6000fd5b505050506040513d601f19601f8201168201806040525081019061026a9190610e56565b9050600073ffffffffffffffffffffffffffffffffffffffff168173ffffffffffffffffffffffffffffffffffffffff161461039457600081905060008173ffffffffffffffffffffffffffffffffffffffff1663f1cb7e0685896040518363ffffffff1660e01b81526004016102e292919061120b565b60006040518083038186803b1580156102fa57600080fd5b505afa15801561030e573d6000803e3d6000fd5b505050506040513d6000823e3d601f19601f820116820180604052508101906103379190610f45565b905060008151141561034c5750505050610397565b80868681518110610386577f4e487b7100000000000000000000000000000000000000000000000000000000600052603260045260246000fd5b602002602001018190525050505b50505b80806103a2906116f7565b915050610119565b509392505050565b60608282905067ffffffffffffffff8111156103f7577f4e487b7100000000000000000000000000000000000000000000000000000000600052604160045260246000fd5b60405190808252806020026020018201604052801561042a57816020015b60608152602001906001900390816104155790505b50905060005b83839050811015610887576000610493858584818110610479577f4e487b7100000000000000000000000000000000000000000000000000000000600052603260045260246000fd5b905060200201602081019061048e9190610e2d565b610967565b905060008060009054906101000a900473ffffffffffffffffffffffffffffffffffffffff1673ffffffffffffffffffffffffffffffffffffffff16630178b8bf836040518263ffffffff1660e01b81526004016104f191906111f0565b60206040518083038186803b15801561050957600080fd5b505afa15801561051d573d6000803e3d6000fd5b505050506040513d601f19601f820116820180604052508101906105419190610e56565b9050600073ffffffffffffffffffffffffffffffffffffffff168173ffffffffffffffffffffffffffffffffffffffff161461087157600081905060008173ffffffffffffffffffffffffffffffffffffffff1663691f3431856040518263ffffffff1660e01b81526004016105b791906111f0565b60006040518083038186803b1580156105cf57600080fd5b505afa1580156105e3573d6000803e3d6000fd5b505050506040513d6000823e3d601f19601f8201168201806040525081019061060c9190610f86565b90506000815114156106215750505050610874565b600061062c8261088e565b905060008060009054906101000a900473ffffffffffffffffffffffffffffffffffffffff1673ffffffffffffffffffffffffffffffffffffffff16630178b8bf836040518263ffffffff1660e01b815260040161068a91906111f0565b60206040518083038186803b1580156106a257600080fd5b505afa1580156106b6573d6000803e3d6000fd5b505050506040513d601f19601f820116820180604052508101906106da9190610e56565b9050600073ffffffffffffffffffffffffffffffffffffffff168173ffffffffffffffffffffffffffffffffffffffff161461086c57600081905060008173ffffffffffffffffffffffffffffffffffffffff16633b3b57de856040518263ffffffff1660e01b815260040161075091906111f0565b60206040518083038186803b15801561076857600080fd5b505afa15801561077c573d6000803e3d6000fd5b505050506040513d601f19601f820116820180604052508101906107a09190610e7f565b90508b8b8a8181106107db577f4e487b7100000000000000000000000000000000000000000000000000000000600052603260045260246000fd5b90506020020160208101906107f09190610e2d565b73ffffffffffffffffffffffffffffffffffffffff168173ffffffffffffffffffffffffffffffffffffffff16141561086957848a8a8151811061085d577f4e487b7100000000000000000000000000000000000000000000000000000000600052603260045260246000fd5b60200260200101819052505b50505b505050505b50505b808061087f906116f7565b915050610430565b5092915050565b60008060001b905060006108a1836109c4565b905060006108e36040518060400160405280600181526020017f2e000000000000000000000000000000000000000000000000000000000000008152506109c4565b90506108ed610c5b565b6109028282856109f29092919063ffffffff16565b505b61090d81610aa0565b61095f578361091b82610ab0565b60405160200161092c929190611180565b6040516020818303038152906040528051906020012093506109598282856109f29092919063ffffffff16565b50610904565b505050919050565b60007f91d1777781884d03a6757a803996e38de2a42967fb37eeaca72729271025a9e260001b61099683610ac1565b6040516020016109a7929190611180565b604051602081830303815290604052805190602001209050919050565b6109cc610c5b565b600060208301905060405180604001604052808451815260200182815250915050919050565b6109fa610c5b565b6000610a188560000151866020015186600001518760200151610b2b565b905080836020018181525050846020015181610a3491906115dd565b8560000151610a4391906115dd565b8360000181815250508460200151811415610a68576000856000018181525050610a95565b83600001518360000151610a7c91906113bc565b85600001818151610a8d91906115dd565b915081815250505b829150509392505050565b6000808260000151149050919050565b600081516020830151209050919050565b60007f303132333435363738396162636465660000000000000000000000000000000060285b6000811115610b1d5760018103905081600f85161a815360108404935060018103905081600f85161a8153601084049350610ae7565b506028600020915050919050565b600080858411610c4e5760208411610bea5760006001856020610b4e91906115dd565b6008610b5a9190611583565b6002610b669190611465565b610b7091906115dd565b1960001b90506000818551169050858888610b8b91906113bc565b610b9591906115dd565b925060008284511690505b818114610bd357878411610bba5787945050505050610c53565b8380610bc59061169c565b945050828451169050610ba0565b8684610bdf91906113bc565b945050505050610c53565b600084842090508487610bfd91906115dd565b86610c0891906113bc565b91505b858210610c4c576000858320905080821415610c37578583610c2d91906113bc565b9350505050610c53565b600183610c4491906115dd565b925050610c0b565b505b849150505b949350505050565b604051806040016040528060008152602001600081525090565b6000610c88610c83846112b0565b61128b565b905082815260208101848484011115610ca057600080fd5b610cab848285611669565b509392505050565b6000610cc6610cc1846112e1565b61128b565b905082815260208101848484011115610cde57600080fd5b610ce9848285611669565b509392505050565b600081359050610d00816117c6565b92915050565b600081519050610d15816117c6565b92915050565b600081519050610d2a816117dd565b92915050565b60008083601f840112610d4257600080fd5b8235905067ffffffffffffffff811115610d5b57600080fd5b602083019150836020820283011115610d7357600080fd5b9250929050565b60008083601f840112610d8c57600080fd5b8235905067ffffffffffffffff811115610da557600080fd5b602083019150836020820283011115610dbd57600080fd5b9250929050565b600082601f830112610dd557600080fd5b8151610de5848260208601610c75565b91505092915050565b600082601f830112610dff57600080fd5b8151610e0f848260208601610cb3565b91505092915050565b600081359050610e27816117f4565b92915050565b600060208284031215610e3f57600080fd5b6000610e4d84828501610cf1565b91505092915050565b600060208284031215610e6857600080fd5b6000610e7684828501610d06565b91505092915050565b600060208284031215610e9157600080fd5b6000610e9f84828501610d1b565b91505092915050565b60008060208385031215610ebb57600080fd5b600083013567ffffffffffffffff811115610ed557600080fd5b610ee185828601610d30565b92509250509250929050565b600080600060408486031215610f0257600080fd5b600084013567ffffffffffffffff811115610f1c57600080fd5b610f2886828701610d7a565b93509350506020610f3b86828701610e18565b9150509250925092565b600060208284031215610f5757600080fd5b600082015167ffffffffffffffff811115610f7157600080fd5b610f7d84828501610dc4565b91505092915050565b600060208284031215610f9857600080fd5b600082015167ffffffffffffffff811115610fb257600080fd5b610fbe84828501610dee565b91505092915050565b6000610fd383836110ff565b905092915050565b6000610fe78383611138565b905092915050565b6000610ffa82611332565b6110048185611378565b93508360208202850161101685611312565b8060005b8581101561105257848403895281516110338582610fc7565b945061103e8361135e565b925060208a0199505060018101905061101a565b50829750879550505050505092915050565b600061106f8261133d565b6110798185611389565b93508360208202850161108b85611322565b8060005b858110156110c757848403895281516110a88582610fdb565b94506110b38361136b565b925060208a0199505060018101905061108f565b50829750879550505050505092915050565b6110e281611635565b82525050565b6110f96110f482611635565b611740565b82525050565b600061110a82611348565b611114818561139a565b9350611124818560208601611669565b61112d816117a8565b840191505092915050565b600061114382611353565b61114d81856113ab565b935061115d818560208601611669565b611166816117a8565b840191505092915050565b61117a8161165f565b82525050565b600061118c82856110e8565b60208201915061119c82846110e8565b6020820191508190509392505050565b600060208201905081810360008301526111c68184610fef565b905092915050565b600060208201905081810360008301526111e88184611064565b905092915050565b600060208201905061120560008301846110d9565b92915050565b600060408201905061122060008301856110d9565b61122d6020830184611171565b9392505050565b6000808335600160200384360303811261124d57600080fd5b80840192508235915067ffffffffffffffff82111561126b57600080fd5b60208301925060018202360383131561128357600080fd5b509250929050565b60006112956112a6565b90506112a182826116c6565b919050565b6000604051905090565b600067ffffffffffffffff8211156112cb576112ca611779565b5b6112d4826117a8565b9050602081019050919050565b600067ffffffffffffffff8211156112fc576112fb611779565b5b611305826117a8565b9050602081019050919050565b6000819050602082019050919050565b6000819050602082019050919050565b600081519050919050565b600081519050919050565b600081519050919050565b600081519050919050565b6000602082019050919050565b6000602082019050919050565b600082825260208201905092915050565b600082825260208201905092915050565b600082825260208201905092915050565b600082825260208201905092915050565b60006113c78261165f565b91506113d28361165f565b9250827fffffffffffffffffffffffffffffffffffffffffffffffffffffffffffffffff038211156114075761140661174a565b5b828201905092915050565b6000808291508390505b600185111561145c578086048111156114385761143761174a565b5b60018516156114475780820291505b8081029050611455856117b9565b945061141c565b94509492505050565b60006114708261165f565b915061147b8361165f565b92506114a87fffffffffffffffffffffffffffffffffffffffffffffffffffffffffffffffff84846114b0565b905092915050565b6000826114c0576001905061157c565b816114ce576000905061157c565b81600181146114e457600281146114ee5761151d565b600191505061157c565b60ff841115611500576114ff61174a565b5b8360020a9150848211156115175761151661174a565b5b5061157c565b5060208310610133831016604e8410600b84101617156115525782820a90508381111561154d5761154c61174a565b5b61157c565b61155f8484846001611412565b925090508184048111156115765761157561174a565b5b81810290505b9392505050565b600061158e8261165f565b91506115998361165f565b9250817fffffffffffffffffffffffffffffffffffffffffffffffffffffffffffffffff04831182151516156115d2576115d161174a565b5b828202905092915050565b60006115e88261165f565b91506115f38361165f565b9250828210156116065761160561174a565b5b828203905092915050565b600061161c8261163f565b9050919050565b600061162e8261163f565b9050919050565b6000819050919050565b600073ffffffffffffffffffffffffffffffffffffffff82169050919050565b6000819050919050565b60005b8381101561168757808201518184015260208101905061166c565b83811115611696576000848401525b50505050565b60006116a78261165f565b915060008214156116bb576116ba61174a565b5b600182039050919050565b6116cf826117a8565b810181811067ffffffffffffffff821117156116ee576116ed611779565b5b80604052505050565b60006117028261165f565b91507fffffffffffffffffffffffffffffffffffffffffffffffffffffffffffffffff8214156117355761173461174a565b5b600182019050919050565b6000819050919050565b7f4e487b7100000000000000000000000000000000000000000000000000000000600052601160045260246000fd5b7f4e487b7100000000000000000000000000000000000000000000000000000000600052604160045260246000fd5b6000601f19601f8301169050919050565b60008160011c9050919050565b6117cf81611611565b81146117da57600080fd5b50565b6117e681611623565b81146117f157600080fd5b50565b6117fd8161165f565b811461180857600080fd5b5056fea2646970667358221220c223cd09250ce936de06eeaade6da8c02506970e442dd1c0a97797ba8910da2e64736f6c63430008040033",
  "devdoc": {
    "kind": "dev",
    "methods": {},
    "version": 1
  },
  "userdoc": {
    "kind": "user",
    "methods": {
      "constructor": {
        "notice": "The `constructor` takes ENS registry address"
      },
      "getAddrs(string[],uint256)": {
        "notice": "Read only function to lookup addresses for a certain coinType"
      },
      "getNames(address[])": {
        "notice": "Read only function to return ens name only if both forward and reverse resolution are set     *"
      }
    },
    "version": 1
  },
  "storageLayout": {
    "storage": [
      {
        "astId": 1474,
        "contract": "contracts/ReverseRecords.sol:ReverseRecords",
        "label": "ens",
        "offset": 0,
        "slot": "0",
        "type": "t_contract(ENS)136"
      },
      {
        "astId": 1477,
        "contract": "contracts/ReverseRecords.sol:ReverseRecords",
        "label": "registrar",
        "offset": 0,
        "slot": "1",
        "type": "t_contract(ReverseRegistrar)543"
      }
    ],
    "types": {
      "t_contract(ENS)136": {
        "encoding": "inplace",
        "label": "contract ENS",
        "numberOfBytes": "20"
      },
      "t_contract(ReverseRegistrar)543": {
        "encoding": "inplace",
        "label": "contract ReverseRegistrar",
        "numberOfBytes": "20"
      }
    }
  }
}